:20B00000C30000CD6BBD2111B0CDFDBCDDE1C34DBD6E6F7000CD6BBDF5DD7E04DD77FEDDC0
:20B020007E05DD77FFE1E54E234621040009EB6960C501840009C17E23666F2919EB69605B
:20B040004E23467912137812E1E54E2346218400094E23462B0378712377E1E54E23466998
:20B060006023235E2356137B02037A02F1DDE1C9CD6BBDF5F5DD4E04DD46050ADD77FC0339
:20B080000ADD77FD0BE1E55E23567AB32878DD7EFCC68ADD77FEDD7EFDCE00DD77FF6B62A1
:20B0A000297DDD86FE6F7CDD8EFF677EDD77FE237EDD77FF13E1E573237269607E23666FE9
:20B0C0002323DD7EFE7723DD7EFF770ADD77FE030ADD77FF0BDD7EFEC68A6FDD7EFFCE005F
:20B0E00067CB23CB12197E23666FDD7EFEC6CD5FDD7EFFCE005729197E23666FC5C5CD08AE
:20B10000BDF1C1C37BB0DDF9DDE1C9CD6BBDDD4E04DD460569605E2356218400195E2356F4
:20B120002B1B73237269604E234621040009EB6960C501840009C17E23666F29195E2356BC
:20B140007B02037A02DDE1C92148B136C9C9CD6BBD215CB1CDFDBCDDE1C34DBD6E6F700009
:20B16000CD6BBDF5DD7E04DD77FEDD7E05DD77FFE1E54E234621040009EB6960C5018400D8
:20B1800009C17E23666F2919EB69604E23467912137812E1E54E2346218400094E23462B8D
:20B1A0000378712377E1E54E2346696023235E2356137B02037A02F1DDE1C9CD6BBDF5F540
:20B1C000DD4E04DD46050ADD77FC030ADD77FD0BE1E55E23567AB32878DD7EFCC68ADD77F0
:20B1E000FEDD7EFDCE00DD77FF6B62297DDD86FE6F7CDD8EFF677EDD77FE237EDD77FF1371
:20B20000E1E573237269607E23666F2323DD7EFE7723DD7EFF770ADD77FE030ADD77FF0B50
:20B22000DD7EFEC68A6FDD7EFFCE0067CB23CB12197E23666FDD7EFEC6CD5FDD7EFFCE009A
:20B240005729197E23666FC5C5CD08BDF1C1C3C6B1DDF9DDE1C9CD6BBDDD4E04DD460569C5
:20B26000605E2356218400195E23562B1B73237269604E234621040009EB6960C501840008
:20B2800009C17E23666F29195E23567B02037A02DDE1C92193B236C9C9CD6BBDF5F5DD7E6A
:20B2A00004DD77FCDD7E05DD77FDE1E54E2346AF020302E1E54E23460303AF020302E1E557
:20B2C0004E234621880009AF772377E1E54E234621CA00093610233600E1E54E234621CCCB
:20B2E000000936010100003E1FB93E0098E2F2B2EE80FA0AB3E1E55E2356218A0019EB69C1
:20B30000602919AF7723770318DD1100003E1FBB3E009AE218B3EE80FA41B3E1E54E23464C
:20B3200021CD0009DD75FEDD74FF6B6229DD7EFE854FDD7EFF8C473E4E02033EB102131879
:20B34000CC0100003E1FB93E0098E24FB3EE80FA7AB3E1E55E2356210400195950CB23CB7E
:20B360001219AF772377E1E57E23666FD511440019D119AF7723770318CADDF9DDE1C9CDAA
:20B380006BBDF521B0B4CDFDBCDD4E04DD460569605E23666B5E2366C56BCD38BD21B4B4B1
:20B3A000CDFDBCC169605E23666B23235E2366C56BCD38BD21B9B4CDFDBCCD4DBD21BBB491
:20B3C000CDFDBCC169605E23666B118400195E2366C56BCD38BD21B9B4CDFDBCCD4DBD2178
:20B3E000C1B4CDFDBCCD4DBDC11100003E1FBB3E009AE2F7B3EE80FA2BB469607E2366C650
:20B4000004DD77FE7CCE00DD77FF6B6229DD7EFE856FDD7EFF8C677E23666FC5D5CD38BDD7
:20B4200021B9B4CDFDBCD1C11318C1C521C7B4CDFDBCCD4DBD21C9B4CDFDBCC169605E238D
:20B44000666B118600195E2366C56BCD38BD21B9B4CDFDBCCD4DBD21CFB4CDFDBCCD4DBDA6
:20B46000C11100003E1FBB3E009AE26FB4EE80FAA3B469607E2366C644DD77FE7CCE00DDF3
:20B4800077FF6B62297DDD86FE6F7CDD8EFF677E23666FC5D5CD38BD21B9B4CDFDBCD1C12E
:20B4A0001318C121C7B4CDFDBCCD4DBDF1DDE1C969703A002077703A00200072735F703ACD
:20B4C0000072733A205B005D0064735F703A0064733A205B00CD6BBD21FFFFDDE1C9CD6B36
:20B4E000BD210000DDE1C9CD6BBD2104B5CDFDBCDD6E04DD6605CDFDBC210CB5CDFDBCDD30
:20B50000E1C34DBD4572726F723A200000210DB536C9C393B2CD6BBD2139B5CDFDBCCD4D8B
:20B52000BDDD6E04DD66054E2346218600094E23462B0B712370DDE1C964726F7000CD6BEB
:20B54000BDF5F5F521BEB5CDFDBCCD4DBDDD7E04DD77FADD7E05DD77FBE1E54E2346214420
:20B560000009EB6960018600094E793D8783DD77FC3E008ADD77FDDD6EFCDD66FD7EDD77AE
:20B58000FE237EDD77FF793D3D876F2600194E2346D1E1E5D5712370E1E54E234621440088
:20B5A00009EB6960018600097E3D3D876F260019DD7EFE7723DD7EFF77DDF9DDE1C9737706
:20B5C000617000CD6BBD2113B6CDFDBCCD4DBDDD4E04DD460569605E2356218600195E2326
:20B5E000562B137A73237769604E234621440009EB6960018600096E7D3D87834F3E008AB5
:20B60000472D2DCB252600195E23567B02037A02DDE1C964757000CD6BBD2168B6CDFDBCFD
:20B62000CD4DBDDD4E04DD460569605E2356218600195E23562B137A73237769604E234660
:20B6400021440009EB6960018600096E7D3D87834F3E008A477DC6FD876F2600195E23565C
:20B660007B02037A02DDE1C96F76657200CD6BBDF5F5F52116B7CDFDBCCD4DBDDD7E04DD30
:20B6800077FADD7E05DD77FBE1E54E234621440009EB6960018600094E79C6FD8783DD7773
:20B6A000FC3E008ADD77FDDD6EFCDD66FD7EDD77FE237EDD77FF793D3D876F2600194E2391
:20B6C00046D1E1E5D5712370E1E54E234621440009EB6960018600096E7D3D3D87834F3E89
:20B6E000008A472DCB252600195E23567B02037A02E1E54E234621440009EB696001860024
:20B70000097E3D876F260019DD7EFE7723DD7EFF77DDF9DDE1C9726F7400CD6BBDF5F5F5E6
:20B7200021C5B7CDFDBCCD4DBDDD7E04DD77FADD7E05DD77FBE1E54E234621440009EB6974
:20B7400060018600094E793D8783DD77FC3E008ADD77FDDD6EFCDD66FD7EDD77FE237EDDAD
:20B7600077FF793D3D876F2600194E2346D1E1E5D5712370E1E54E234621440009EB696065
:20B78000018600096E7D3D3D87834F3E008A477DC6FD876F2600195E23567B02037A02E123
:20B7A000E54E234621440009EB6960018600097EC6FD876F260019DD7EFE7723DD7EFF7701
:20B7C000DDF9DDE1C96E726F740021CAB736C9C9CD6BBD2127B8CDFDBCCD4DBDDD4E04DD81
:20B7E000460569605E2356218600195E23562B1B73237269604E234621440009EB696001D6
:20B800008600097E23666F3D87834F3E008A4729195E235669607E23666F935F7C9A577B4C
:20B8200002037A02DDE1C92D00CD6BBD217DB8CDFDBCCD4DBDDD4E04DD460569605E235634
:20B84000218600195E23562B1B73237269604E234621440009EB6960018600097E23666F5B
:20B860003D87834F3E008A4729195E235669607E23666F19EB7B02037A02DDE1C92B00CD4C
:20B880006BBD21DCB8CDFDBCCD4DBDDD4E04DD460569605E2356218600195E23562B1B7327
:20B8A000237269604E234621440009EB6960018600097E23666F3D87834F3E008A47291964
:20B8C0005E235669607E23666FC5D5E5CD54BCF1F15D54C17B02037A02DDE1C92A00CD6BBD
:20B8E000BD213BB9CDFDBCCD4DBDDD4E04DD460569605E2356218600195E23562B1B7323AF
:20B900007269604E234621440009EB6960018600097E23666F3D87834F3E008A4729195EC8
:20B92000235669607E23666FC5D5E5CD6EBCF1F15D54C17B02037A02DDE1C92F00CD6BBDDE
:20B94000219AB9CDFDBCCD4DBDDD4E04DD460569605E2356218600195E23562B1B7323723A
:20B9600069604E234621440009EB6960018600097E23666F3D87834F3E008A4729195E23B7
:20B980005669607E23666FC5D5E5CDC2BBF1F15D54C17B02037A02DDE1C96D6F6400CD6BFA
:20B9A000BD21D1B9CDFDBCCD4DBDDD6E04DD66054E234621440009EB6960018600097E3D07
:20B9C000876F2600194E23462B0378712377DDE1C9312B00CD6BBD2106BACDFDBCCD4DBDB4
:20B9E000DD6E04DD66054E234621440009EB6960018600097E3D876F2600194E23462B0B6A
:20BA0000712370DDE1C9312D002109BA36C9C9CD6BBDF52169BACDFDBCCD4DBDDD4E04DDFA
:20BA2000460569607E23666FC6445F7CCE0057C501860009C17E23666F2919C5E5C5CDD593
:20BA4000B4F1DD75FEDD74FFD1C1DD7EFE1213DD7EFF1269604E2346218600094E23462B13
:20BA60000378712377F1DDE1C97472756500CD6BBDF521C8BACDFDBCCD4DBDDD4E04DD46CC
:20BA80000569607E23666FC6445F7CCE0057C501860009C17E23666F2919C5E5C5CDDEB4BC
:20BAA000F1DD75FEDD74FFD1C1DD7EFE1213DD7EFF1269604E2346218600094E23462B0364
:20BAC00078712377F1DDE1C966616C736500CD6BBDF5F521AABBCDFDBCCD4DBDDD4E04DD92
:20BAE000460569607E23666FC6445F7CCE0057C501860009C17E3D87835F3E008A57C5D5BF
:20BB0000C5CDD5B4F1DD75FCDD74FDD1C11ADD77FE131ADD77FF69607E23666FC6445F7CDB
:20BB2000CE0057C501860009C17E3D87835F3E008A57DD7EFCDD96FE2018DD7EFDDD96FFBD
:20BB40002010D5C5CDDEB4F14D44D179121378121853C5D5C5CDDEB4F1DD75FEDD74FFD1B6
:20BB6000C1EB5E2356DD6EFEDD66FFBFED52202C69607E23666FC6445F7CCE0057C50186D8
:20BB80000009C17E3D87835F3E008A57D5C5CDD5B4F14D44D17912137812180921AEBBCDB5
:20BBA000FDBCCD4DBDDDF9DDE1C96E6F74006E6F74206C6F676963616C0021BABB36C9C3A3
:20BBC0000DB5CD6BBDDD6E06DD6607E5DD6E04DD6605E5CD82BDF1F14D44AFDDBE06DD9E68
:20BBE00007E2E6BBEE80F213BCDDCB057E2820DD4E06DD46070BDD5E04DD560513C5DD6E19
:20BC000006DD6607E5D5CD82BDF1F1C10918426960183EDDCB077E2833AFDDBE04DD9E0593
:20BC2000E225BCEE80F248BCDD4E06DD460703DD5E04DD56051BC5DD6E06DD6607E5D5CD06
:20BC400082BDF1F1C1091809696018052E05CDD6BDDDE1C9F1C1D1D5C5F5AF6FB0061020C2
:20BC60000406087929CB111730011910F7C9CD6BBDDD6E06DD6607E5DD6E04DD6605E5CD45
:20BC80008EBDF1F14D44AFDDBE06DD9E07E292BCEE80F2C2BCDDCB057E28233EFFDD9604DC
:20BCA0004F3EFFDD9E0547DD6E06DD6607E5C5CD8EBDF1F13EFF956F3EFF9C67183C696054
:20BCC0001838DDCB077E282DAFDDBE04DD9E05E2D4BCEE80F2F1BCDD4E04DD46050BDD6E98
:20BCE00006DD6607E5C5CD8EBDF1F101FFFF091809696018052E05CDD6BDDDE1C97EB7C82A
:20BD0000E5CD0ABDE12318F5E97D3223BD2115BD34CC5ABD11FF573A8F5C127A878787E684
:20BD20007F57210000292929ED4B365C0906077E12231410FA7E12C9CB7CCA23BEEBAF6F8C
:20BD400067ED52E53E2DCD0ABDE1C323BE2115BD7EF61FBE77C0C62077D023347EFE5BD826
:20BD600021DF5A2215BD0617C3000EE1DDE5DD210000DD39E9210300395E2B6ECD9EBDC3A8
:20BD8000CCBDF1E1D1D5E5F5CDA6BDC3CCBDF1E1D1D5E5F5C3A6BD210300395E2B6E7D07FC
:20BDA0009F677B079F577CAA177CF517300697956F9F9467CB7A280697935F9F9257CDF490
:20BDC000BDF1D04797956F9F946778C917EBD097956F9F9467C9FD213A5CED56FB22E1BDA6
:20BDE000CFFFF1E1D1D5E5F5180A210300395E2B6E2600547BE680B220100610ED6A179359
:20BE00003001833FED6A10F65FC906097D6C2600CB1DED6AED523001193F1710F5CB10503E
:20BE20005FEBC90E0511F0D8CD3DBE1118FCCD3DBE119CFFCD3DBE1EF6CD3DBE5A3E2F3CFB
:13BE40001938FCED520D2803FE30C8D9CD0ABDD90E01C917
:00000001FF
