:20B00000C30000CD20BEF5215DB0CDB2BDCD02BEDD4E04DD460569607E23666FC6445F7C5B
:20B02000CE0057C501860009C17E23666F2919C5E5C5CD8AB5F1DD75FEDD74FFD1C1DD7E24
:20B04000FE1213DD7EFF1269604E2346218600094E23462B0378712377F1DDE1C9747275F6
:20B060006500CD20BEF521BCB0CDB2BDCD02BEDD4E04DD460569607E23666FC6445F7CCE2C
:20B080000057C501860009C17E23666F2919C5E5C5CD93B5F1DD75FEDD74FFD1C1DD7EFE8B
:20B0A0001213DD7EFF1269604E2346218600094E23462B0378712377F1DDE1C966616C7349
:20B0C0006500CD20BEF5F5219EB1CDB2BDCD02BEDD4E04DD460569607E23666FC6445F7CC2
:20B0E000CE0057C501860009C17E3D87835F3E008A57C5D5C5CD8AB5F1DD75FCDD74FDD109
:20B10000C11ADD77FE131ADD77FF69607E23666FC6445F7CCE0057C501860009C17E3D87E1
:20B12000835F3E008A57DD7EFCDD96FE2018DD7EFDDD96FF2010D5C5CD93B5F14D44D17999
:20B14000121378121853C5D5C5CD93B5F1DD75FEDD74FFD1C1EB5E2356DD6EFEDD66FFBF32
:20B16000ED52202C69607E23666FC6445F7CCE0057C501860009C17E3D87835F3E008A57A2
:20B18000D5C5CD8AB5F14D44D17912137812180921A2B1CDB2BDCD02BEDDF9DDE1C96E6FF6
:20B1A00074006E6F74206C6F676963616C0021AEB136C9C3C2B521BFB1CDB2BDC302BE6E58
:20B1C0006F700021CCB1CDB2BDC302BE6E6F7000CD20BEF52134B2CDB2BDCD02BEDD7E0417
:20B1E000DD77FEDD7E05DD77FFE1E54E234621040009EB6960C501840009C17E23666F2938
:20B2000019EB69604E23467912137812E1E54E2346218400094E23462B0378712377E1E529
:20B220004E2346696023235E2356137B02037A02F1DDE1C9646F5F6C69737400CD20BEF55C
:20B24000F5F521F2B2CDB2BDCD02BEDD4E04DD460569605E23561ADD77FA131ADD77FB1B80
:20B26000DD7EFBDDB6FACAEDB2218A0019DD75FEDD74FFE1E5297DDD86FE6F7CDD8EFF6795
:20B280007EDD77FC237EDD77FDDD7EFAC601DD77FEDD7EFBCE00DD77FFDD7EFE1213DD7E30
:20B2A000FF1269605E23561313DD7EFC1213DD7EFD1269605E2356218A0019DD75FCDD74CE
:20B2C000FDDD6EFEDD66FF297DDD86FC6F7CDD8EFD677E23666F7BC6CD5F30011429197E3F
:20B2E00023666FC5C5CDBDBDF1C1C351B2DDF9DDE1C9646F5F6E65787400CD20BE2140B300
:20B30000CDB2BDCD02BEDD4E04DD460569605E2356218400195E23562B1B73237269604E73
:20B32000234621040009EB6960C501840009C17E23666F29195E23567B02037A02DDE1C99C
:20B34000646F5F65786974002148B336C9C9CD20BEF5F5DD7E04DD77FCDD7E05DD77FDE147
:20B36000E54E2346AF020302E1E54E23460303AF020302E1E54E234621880009AF77237753
:20B38000E1E54E234621CA00093610233600E1E54E234621CC000936010100003E1FB93E9E
:20B3A0000098E2A7B3EE80FABFB3E1E55E2356218A0019EB69602919AF7723770318DD11BF
:20B3C00000003E1FBB3E009AE2CDB3EE80FAF6B3E1E54E234621CD0009DD75FEDD74FF6B8B
:20B3E0006229DD7EFE854FDD7EFF8C473EC302033EB1021318CC0100003E1FB93E0098E2AB
:20B4000004B4EE80FA2FB4E1E55E2356210400195950CB23CB1219AF772377E1E57E236634
:20B420006FD511440019D119AF7723770318CADDF9DDE1C9CD20BEF52165B5CDB2BDDD4E2C
:20B4400004DD460569605E23666B5E2366C56BCDEDBD2169B5CDB2BDC169605E23666B239D
:20B46000235E2366C56BCDEDBD216EB5CDB2BDCD02BE2170B5CDB2BDC169605E23666B119F
:20B480008400195E2366C56BCDEDBD216EB5CDB2BDCD02BE2176B5CDB2BDCD02BEC111008D
:20B4A000003E1FBB3E009AE2ACB4EE80FAE0B469607E2366C604DD77FE7CCE00DD77FF6B6A
:20B4C0006229DD7EFE856FDD7EFF8C677E23666FC5D5CDEDBD216EB5CDB2BDD1C11318C1C2
:20B4E000C5217CB5CDB2BDCD02BE217EB5CDB2BDC169605E23666B118600195E2366C56B39
:20B50000CDEDBD216EB5CDB2BDCD02BE2184B5CDB2BDCD02BEC11100003E1FBB3E009AE2E0
:20B5200024B5EE80FA58B569607E2366C644DD77FE7CCE00DD77FF6B62297DDD86FE6F7C35
:20B54000DD8EFF677E23666FC5D5CDEDBD216EB5CDB2BDD1C11318C1217CB5CDB2BDCD0238
:20B56000BEF1DDE1C969703A002077703A00200072735F703A0072733A205B005D00647365
:20B580005F703A0064733A205B00CD20BE21FFFFDDE1C9CD20BE210000DDE1C9CD20BE21A6
:20B5A000B9B5CDB2BDDD6E04DD6605CDB2BD21C1B5CDB2BDDDE1C302BE4572726F723A2096
:20B5C000000021C2B536C9C348B3CD20BE21EEB5CDB2BDCD02BEDD6E04DD66054E2346216F
:20B5E0008600094E23462B0B712370DDE1C964726F7000CD20BEF5F5F52173B6CDB2BDCDB2
:20B6000002BEDD7E04DD77FADD7E05DD77FBE1E54E234621440009EB6960018600094E7918
:20B620003D8783DD77FC3E008ADD77FDDD6EFCDD66FD7EDD77FE237EDD77FF793D3D876F26
:20B640002600194E2346D1E1E5D5712370E1E54E234621440009EB6960018600097E3D3D5D
:20B66000876F260019DD7EFE7723DD7EFF77DDF9DDE1C97377617000CD20BE21C8B6CDB2F0
:20B68000BDCD02BEDD4E04DD460569605E2356218600195E23562B137A73237769604E23D3
:20B6A0004621440009EB6960018600096E7D3D87834F3E008A472D2DCB252600195E2356A2
:20B6C0007B02037A02DDE1C964757000CD20BE211DB7CDB2BDCD02BEDD4E04DD4605696015
:20B6E0005E2356218600195E23562B137A73237769604E234621440009EB696001860009E5
:20B700006E7D3D87834F3E008A477DC6FD876F2600195E23567B02037A02DDE1C96F766580
:20B720007200CD20BEF5F5F521CBB7CDB2BDCD02BEDD7E04DD77FADD7E05DD77FBE1E54E31
:20B74000234621440009EB6960018600094E79C6FD8783DD77FC3E008ADD77FDDD6EFCDDAD
:20B7600066FD7EDD77FE237EDD77FF793D3D876F2600194E2346D1E1E5D5712370E1E54E3F
:20B78000234621440009EB6960018600096E7D3D3D87834F3E008A472DCB252600195E23E4
:20B7A000567B02037A02E1E54E234621440009EB6960018600097E3D876F260019DD7EFEBF
:20B7C0007723DD7EFF77DDF9DDE1C9726F7400CD20BEF5F5F5217AB8CDB2BDCD02BEDD7E4B
:20B7E00004DD77FADD7E05DD77FBE1E54E234621440009EB6960018600094E793D8783DD2E
:20B8000077FC3E008ADD77FDDD6EFCDD66FD7EDD77FE237EDD77FF793D3D876F2600194EDB
:20B820002346D1E1E5D5712370E1E54E234621440009EB6960018600096E7D3D3D87834F42
:20B840003E008A477DC6FD876F2600195E23567B02037A02E1E54E234621440009EB6960F2
:20B86000018600097EC6FD876F260019DD7EFE7723DD7EFF77DDF9DDE1C96E726F740021BD
:20B880007FB836C9C9CD20BE21DCB8CDB2BDCD02BEDD4E04DD460569605E235621860019C9
:20B8A0005E23562B1B73237269604E234621440009EB6960018600097E23666F3D87834F25
:20B8C0003E008A4729195E235669607E23666F935F7C9A577B02037A02DDE1C92D00CD2005
:20B8E000BE2132B9CDB2BDCD02BEDD4E04DD460569605E2356218600195E23562B1B73234B
:20B900007269604E234621440009EB6960018600097E23666F3D87834F3E008A4729195EC8
:20B92000235669607E23666F19EB7B02037A02DDE1C92B00CD20BE2191B9CDB2BDCD02BEBE
:20B94000DD4E04DD460569605E2356218600195E23562B1B73237269604E2346214400091D
:20B96000EB6960018600097E23666F3D87834F3E008A4729195E235669607E23666FC5D576
:20B98000E5CD09BDF1F15D54C17B02037A02DDE1C92A00CD20BE21F0B9CDB2BDCD02BEDD13
:20B9A0004E04DD460569605E2356218600195E23562B1B73237269604E234621440009EBAF
:20B9C0006960018600097E23666F3D87834F3E008A4729195E235669607E23666FC5D5E51C
:20B9E000CD23BDF1F15D54C17B02037A02DDE1C92F00CD20BE214FBACDB2BDCD02BEDD4ECB
:20BA000004DD460569605E2356218600195E23562B1B73237269604E234621440009EB6933
:20BA200060018600097E23666F3D87834F3E008A4729195E235669607E23666FC5D5E5CD57
:20BA400077BCF1F15D54C17B02037A02DDE1C96D6F6400CD20BE2186BACDB2BDCD02BEDDEA
:20BA60006E04DD66054E234621440009EB6960018600097E3D876F2600194E23462B037856
:20BA8000712377DDE1C9312B00CD20BE21BBBACDB2BDCD02BEDD6E04DD66054E23462144FB
:20BAA0000009EB6960018600097E3D876F2600194E23462B0B712370DDE1C9312D0021BE94
:20BAC000BA36C9C9CD20BEF5211EBBCDB2BDCD02BEDD4E04DD460569607E23666FC6445F82
:20BAE0007CCE0057C501860009C17E23666F2919C5E5C5CD8AB5F1DD75FEDD74FFD1C1DD5C
:20BB00007EFE1213DD7EFF1269604E2346218600094E23462B0378712377F1DDE1C9747222
:20BB2000756500CD20BEF5217DBBCDB2BDCD02BEDD4E04DD460569607E23666FC6445F7CEE
:20BB4000CE0057C501860009C17E23666F2919C5E5C5CD93B5F1DD75FEDD74FFD1C1DD7EF0
:20BB6000FE1213DD7EFF1269604E2346218600094E23462B0378712377F1DDE1C966616CF3
:20BB8000736500CD20BEF5F5215FBCCDB2BDCD02BEDD4E04DD460569607E23666FC6445F34
:20BBA0007CCE0057C501860009C17E3D87835F3E008A57C5D5C5CD8AB5F1DD75FCDD74FD93
:20BBC000D1C11ADD77FE131ADD77FF69607E23666FC6445F7CCE0057C501860009C17E3DCD
:20BBE00087835F3E008A57DD7EFCDD96FE2018DD7EFDDD96FF2010D5C5CD93B5F14D44D1C1
:20BC000079121378121853C5D5C5CD93B5F1DD75FEDD74FFD1C1EB5E2356DD6EFEDD66FFAD
:20BC2000BFED52202C69607E23666FC6445F7CCE0057C501860009C17E3D87835F3E008A6F
:20BC400057D5C5CD8AB5F14D44D1791213781218092163BCCDB2BDCD02BEDDF9DDE1C96E77
:20BC60006F74006E6F74206C6F676963616C00216FBC36C9C3C2B5CD20BEDD6E06DD6607CA
:20BC8000E5DD6E04DD6605E5CD37BEF1F14D44AFDDBE06DD9E07E29BBCEE80F2C8BCDDCB77
:20BCA000057E2820DD4E06DD46070BDD5E04DD560513C5DD6E06DD6607E5D5CD37BEF1F10B
:20BCC000C10918426960183EDDCB077E2833AFDDBE04DD9E05E2DABCEE80F2FDBCDD4E0609
:20BCE000DD460703DD5E04DD56051BC5DD6E06DD6607E5D5CD37BEF1F1C1091809696018FB
:20BD0000052E05CD8BBEDDE1C9F1C1D1D5C5F5AF6FB00610200406087929CB111730011947
:20BD200010F7C9CD20BEDD6E06DD6607E5DD6E04DD6605E5CD43BEF1F14D44AFDDBE06DD1E
:20BD40009E07E247BDEE80F277BDDDCB057E28233EFFDD96044F3EFFDD9E0547DD6E06DD19
:20BD60006607E5C5CD43BEF1F13EFF956F3EFF9C67183C69601838DDCB077E282DAFDDBE42
:20BD800004DD9E05E289BDEE80F2A6BDDD4E04DD46050BDD6E06DD6607E5C5CD43BEF1F1DD
:20BDA00001FFFF091809696018052E05CD8BBEDDE1C97EB7C8E5CDBFBDE12318F5E97D32D0
:20BDC000D8BD21CABD34CC0FBE11FF573A8F5C127A878787E67F57210000292929ED4B36E6
:20BDE0005C0906077E12231410FA7E12C9CB7CCAD8BEEBAF6F67ED52E53E2DCDBFBDE1C314
:20BE0000D8BE21CABD7EF61FBE77C0C62077D023347EFE5BD821DF5A22CABD0617C3000E38
:20BE2000E1DDE5DD210000DD39E9210300395E2B6ECD53BEC381BEF1E1D1D5E5F5CD5BBEF6
:20BE4000C381BEF1E1D1D5E5F5C35BBE210300395E2B6E7D079F677B079F577CAA177CF5AE
:20BE600017300697956F9F9467CB7A280697935F9F9257CDA9BEF1D04797956F9F946778D3
:20BE8000C917EBD097956F9F9467C9FD213A5CED56FB2296BECFFFF1E1D1D5E5F5180A213E
:20BEA0000300395E2B6E2600547BE680B220100610ED6A17933001833FED6A10F65FC9067D
:20BEC000097D6C2600CB1DED6AED523001193F1710F5CB10505FEBC90E0511F0D8CDF2BE80
:20BEE0001118FCCDF2BE119CFFCDF2BE1EF6CDF2BE5A3E2F3C1938FCED520D2803FE30C829
:08BF0000D9CDBFBDD90E01C966
:00000001FF
