:20B00000C30000CDFDBDF5F5DD7E04DD77FCDD7E05DD77FDE1E54E2346AF020302E1E54E55
:20B0200023460303AF020302E1E54E234621880009AF772377E1E54E234621CA0009361045
:20B04000233600E1E54E234621CC000936010100003E1FB93E0098E25CB0EE80FA74B0E1A5
:20B06000E55E2356218A0019EB69602919AF7723770318DD1100003E1FBB3E009AE282B08D
:20B08000EE80FAABB0E1E54E234621CD0009DD75FEDD74FF6B6229DD7EFE854FDD7EFF8CD0
:20B0A000473E8C02033EB2021318CC0100003E1FB93E0098E2B9B0EE80FAE4B0E1E55E2316
:20B0C00056210400195950CB23CB1219AF772377E1E57E23666FD511440019D119AF7723DD
:20B0E000770318CADDF9DDE1C9CDFDBDF5211AB2CD8FBDDD4E04DD460569605E23666B5E45
:20B100002366C56BCDCABD211EB2CD8FBDC169605E23666B23235E2366C56BCDCABD212347
:20B12000B2CD8FBDCDDFBD2125B2CD8FBDC169605E23666B118400195E2366C56BCDCABDD5
:20B140002123B2CD8FBDCDDFBD212BB2CD8FBDCDDFBDC11100003E1FBB3E009AE261B1EE53
:20B1600080FA95B169607E2366C604DD77FE7CCE00DD77FF6B6229DD7EFE856FDD7EFF8C5D
:20B18000677E23666FC5D5CDCABD2123B2CD8FBDD1C11318C1C52131B2CD8FBDCDDFBD21EB
:20B1A00033B2CD8FBDC169605E23666B118600195E2366C56BCDCABD2123B2CD8FBDCDDFDF
:20B1C000BD2139B2CD8FBDCDDFBDC11100003E1FBB3E009AE2D9B1EE80FA0DB269607E2365
:20B1E00066C644DD77FE7CCE00DD77FF6B62297DDD86FE6F7CDD8EFF677E23666FC5D5CD83
:20B20000CABD2123B2CD8FBDD1C11318C12131B2CD8FBDCDDFBDF1DDE1C969703A00207772
:20B22000703A00200072735F703A0072733A205B005D0064735F703A0064733A205B00CD26
:20B24000FDBD21FFFFDDE1C9CDFDBD210000DDE1C9CDFDBD216EB2CD8FBDDD6E04DD6605E7
:20B26000CD8FBD2176B2CD8FBDDDE1C3DFBD4572726F723A2000002177B236C9C311B421E0
:20B2800088B2CD8FBDC3DFBD6E6F70002195B2CD8FBDC3DFBD6E6F7000CDFDBDF521FDB236
:20B2A000CD8FBDCDDFBDDD7E04DD77FEDD7E05DD77FFE1E54E234621040009EB6960C50183
:20B2C000840009C17E23666F2919EB69604E23467912137812E1E54E2346218400094E2339
:20B2E000462B0378712377E1E54E2346696023235E2356137B02037A02F1DDE1C9646F5F3B
:20B300006C69737400CDFDBDF5F5F521BBB3CD8FBDCDDFBDDD4E04DD460569605E23561AE9
:20B32000DD77FA131ADD77FB1BDD7EFBDDB6FACAB6B3218A0019DD75FEDD74FFE1E5297D42
:20B34000DD86FE6F7CDD8EFF677EDD77FC237EDD77FDDD7EFAC601DD77FEDD7EFBCE00DDA1
:20B3600077FFDD7EFE1213DD7EFF1269605E23561313DD7EFC1213DD7EFD1269605E235621
:20B38000218A0019DD75FCDD74FDDD6EFEDD66FF297DDD86FC6F7CDD8EFD677E23666F7B12
:20B3A000C6CD5F30011429197E23666FC5C5CD9ABDF1C1C31AB3DDF9DDE1C9646F5F6E654C
:20B3C000787400CDFDBD2109B4CD8FBDCDDFBDDD4E04DD460569605E2356218400195E2364
:20B3E000562B1B73237269604E234621040009EB6960C501840009C17E23666F29195E23FA
:20B40000567B02037A02DDE1C9646F5F65786974002111B436C9C9CDFDBDF5F5DD7E04DD0C
:20B4200077FCDD7E05DD77FDE1E54E2346AF020302E1E54E23460303AF020302E1E54E2345
:20B440004621880009AF772377E1E54E234621CA00093610233600E1E54E234621CC0009B1
:20B4600036010100003E1FB93E0098E270B4EE80FA88B4E1E55E2356218A0019EB696029C0
:20B4800019AF7723770318DD1100003E1FBB3E009AE296B4EE80FABFB4E1E54E234621CD68
:20B4A0000009DD75FEDD74FF6B6229DD7EFE854FDD7EFF8C473E8C02033EB2021318CC01DA
:20B4C00000003E1FB93E0098E2CDB4EE80FAF8B4E1E55E2356210400195950CB23CB1219A1
:20B4E000AF772377E1E57E23666FD511440019D119AF7723770318CADDF9DDE1C9CDFDBD9A
:20B50000F5212EB6CD8FBDDD4E04DD460569605E23666B5E2366C56BCDCABD2132B6CD8FD6
:20B52000BDC169605E23666B23235E2366C56BCDCABD2137B6CD8FBDCDDFBD2139B6CD8FC5
:20B54000BDC169605E23666B118400195E2366C56BCDCABD2137B6CD8FBDCDDFBD213FB693
:20B56000CD8FBDCDDFBDC11100003E1FBB3E009AE275B5EE80FAA9B569607E2366C604DD3E
:20B5800077FE7CCE00DD77FF6B6229DD7EFE856FDD7EFF8C677E23666FC5D5CDCABD21374D
:20B5A000B6CD8FBDD1C11318C1C52145B6CD8FBDCDDFBD2147B6CD8FBDC169605E23666BC8
:20B5C000118600195E2366C56BCDCABD2137B6CD8FBDCDDFBD214DB6CD8FBDCDDFBDC11148
:20B5E00000003E1FBB3E009AE2EDB5EE80FA21B669607E2366C644DD77FE7CCE00DD77FFCF
:20B600006B62297DDD86FE6F7CDD8EFF677E23666FC5D5CDCABD2137B6CD8FBDD1C1131852
:20B62000C12145B6CD8FBDCDDFBDF1DDE1C969703A002077703A00200072735F703A00725F
:20B64000733A205B005D0064735F703A0064733A205B00CDFDBD21FFFFDDE1C9CDFDBD2124
:20B660000000DDE1C9CDFDBD2182B6CD8FBDDD6E04DD6605CD8FBD218AB6CD8FBDDDE1C39F
:20B68000DFBD4572726F723A200000218BB636C9C311B4CDFDBD21B7B6CD8FBDCDDFBDDD4D
:20B6A0006E04DD66054E2346218600094E23462B0B712370DDE1C964726F7000CDFDBDF5C0
:20B6C000F5F5213CB7CD8FBDCDDFBDDD7E04DD77FADD7E05DD77FBE1E54E234621440009A3
:20B6E000EB6960018600094E793D8783DD77FC3E008ADD77FDDD6EFCDD66FD7EDD77FE2315
:20B700007EDD77FF793D3D876F2600194E2346D1E1E5D5712370E1E54E234621440009EB33
:20B720006960018600097E3D3D876F260019DD7EFE7723DD7EFF77DDF9DDE1C973776170A7
:20B7400000CDFDBD2191B7CD8FBDCDDFBDDD4E04DD460569605E2356218600195E23562BBE
:20B76000137A73237769604E234621440009EB6960018600096E7D3D87834F3E008A472D40
:20B780002DCB252600195E23567B02037A02DDE1C964757000CDFDBD21E6B7CD8FBDCDDFA0
:20B7A000BDDD4E04DD460569605E2356218600195E23562B137A73237769604E2346214494
:20B7C0000009EB6960018600096E7D3D87834F3E008A477DC6FD876F2600195E23567B02C3
:20B7E000037A02DDE1C96F76657200CDFDBDF5F5F52194B8CD8FBDCDDFBDDD7E04DD77FA85
:20B80000DD7E05DD77FBE1E54E234621440009EB6960018600094E79C6FD8783DD77FC3E28
:20B82000008ADD77FDDD6EFCDD66FD7EDD77FE237EDD77FF793D3D876F2600194E2346D132
:20B84000E1E5D5712370E1E54E234621440009EB6960018600096E7D3D3D87834F3E008A94
:20B86000472DCB252600195E23567B02037A02E1E54E234621440009EB6960018600097EA5
:20B880003D876F260019DD7EFE7723DD7EFF77DDF9DDE1C9726F7400CDFDBDF5F5F52143F6
:20B8A000B9CD8FBDCDDFBDDD7E04DD77FADD7E05DD77FBE1E54E234621440009EB69600151
:20B8C0008600094E793D8783DD77FC3E008ADD77FDDD6EFCDD66FD7EDD77FE237EDD77FF17
:20B8E000793D3D876F2600194E2346D1E1E5D5712370E1E54E234621440009EB69600186D3
:20B9000000096E7D3D3D87834F3E008A477DC6FD876F2600195E23567B02037A02E1E54EF5
:20B92000234621440009EB6960018600097EC6FD876F260019DD7EFE7723DD7EFF77DDF9DC
:20B94000DDE1C96E726F74002148B936C9C9CDFDBD21A5B9CD8FBDCDDFBDDD4E04DD4605D4
:20B9600069605E2356218600195E23562B1B73237269604E234621440009EB696001860019
:20B98000097E23666F3D87834F3E008A4729195E235669607E23666F935F7C9A577B02034C
:20B9A0007A02DDE1C92D00CDFDBD21FBB9CD8FBDCDDFBDDD4E04DD460569605E23562186DB
:20B9C00000195E23562B1B73237269604E234621440009EB6960018600097E23666F3D87BD
:20B9E000834F3E008A4729195E235669607E23666F19EB7B02037A02DDE1C92B00CDFDBDD5
:20BA0000215ABACD8FBDCDDFBDDD4E04DD460569605E2356218600195E23562B1B73237293
:20BA200069604E234621440009EB6960018600097E23666F3D87834F3E008A4729195E23F6
:20BA40005669607E23666FC5D5E5CDE6BCF1F15D54C17B02037A02DDE1C92A00CDFDBD21BA
:20BA6000B9BACD8FBDCDDFBDDD4E04DD460569605E2356218600195E23562B1B732372698C
:20BA8000604E234621440009EB6960018600097E23666F3D87834F3E008A4729195E2356A9
:20BAA00069607E23666FC5D5E5CD00BDF1F15D54C17B02037A02DDE1C92F00CDFDBD211878
:20BAC000BBCD8FBDCDDFBDDD4E04DD460569605E2356218600195E23562B1B732372696084
:20BAE0004E234621440009EB6960018600097E23666F3D87834F3E008A4729195E23566940
:20BB0000607E23666FC5D5E5CD54BCF1F15D54C17B02037A02DDE1C96D6F6400CDFDBD2134
:20BB20004FBBCD8FBDCDDFBDDD6E04DD66054E234621440009EB6960018600097E3D876FC8
:20BB40002600194E23462B0378712377DDE1C9312B00CDFDBD2184BBCD8FBDCDDFBDDD6EA7
:20BB600004DD66054E234621440009EB6960018600097E3D876F2600194E23462B0B71239F
:20BB800070DDE1C9312D002187BB36C9C9CDFDBDF521E7BBCD8FBDCDDFBDDD4E04DD46050D
:20BBA00069607E23666FC6445F7CCE0057C501860009C17E23666F2919C5E5C5CD53B6F138
:20BBC000DD75FEDD74FFD1C1DD7EFE1213DD7EFF1269604E2346218600094E23462B0378BC
:20BBE000712377F1DDE1C97472756500CDFDBDF52146BCCD8FBDCDDFBDDD4E04DD46056921
:20BC0000607E23666FC6445F7CCE0057C501860009C17E23666F2919C5E5C5CD5CB6F1DD5A
:20BC200075FEDD74FFD1C1DD7EFE1213DD7EFF1269604E2346218600094E23462B037871C7
:20BC40002377F1DDE1C966616C736500214CBC36C9C38BB6CDFDBDDD6E06DD6607E5DD6E49
:20BC600004DD6605E5CD14BEF1F14D44AFDDBE06DD9E07E278BCEE80F2A5BCDDCB057E2885
:20BC800020DD4E06DD46070BDD5E04DD560513C5DD6E06DD6607E5D5CD14BEF1F1C1091817
:20BCA000426960183EDDCB077E2833AFDDBE04DD9E05E2B7BCEE80F2DABCDD4E06DD460727
:20BCC00003DD5E04DD56051BC5DD6E06DD6607E5D5CD14BEF1F1C1091809696018052E0530
:20BCE000CD68BEDDE1C9F1C1D1D5C5F5AF6FB00610200406087929CB111730011910F7C9F3
:20BD0000CDFDBDDD6E06DD6607E5DD6E04DD6605E5CD20BEF1F14D44AFDDBE06DD9E07E2CE
:20BD200024BDEE80F254BDDDCB057E28233EFFDD96044F3EFFDD9E0547DD6E06DD6607E5B4
:20BD4000C5CD20BEF1F13EFF956F3EFF9C67183C69601838DDCB077E282DAFDDBE04DD9E58
:20BD600005E266BDEE80F283BDDD4E04DD46050BDD6E06DD6607E5C5CD20BEF1F101FFFFE6
:20BD8000091809696018052E05CD68BEDDE1C97EB7C8E5CD9CBDE12318F5E97D32B5BD21A2
:20BDA000A7BD34CCECBD11FF573A8F5C127A878787E67F57210000292929ED4B365C090698
:20BDC000077E12231410FA7E12C9CB7CCAB5BEEBAF6F67ED52E53E2DCD9CBDE1C3B5BE2151
:20BDE000A7BD7EF61FBE77C0C62077D023347EFE5BD821DF5A22A7BD0617C3000EE1DDE5B3
:20BE0000DD210000DD39E9210300395E2B6ECD30BEC35EBEF1E1D1D5E5F5CD38BEC35EBE43
:20BE2000F1E1D1D5E5F5C338BE210300395E2B6E7D079F677B079F577CAA177CF5173006A6
:20BE400097956F9F9467CB7A280697935F9F9257CD86BEF1D04797956F9F946778C917EB98
:20BE6000D097956F9F9467C9FD213A5CED56FB2273BECFFFF1E1D1D5E5F5180A2103003910
:20BE80005E2B6E2600547BE680B220100610ED6A17933001833FED6A10F65FC906097D6CE7
:20BEA0002600CB1DED6AED523001193F1710F5CB10505FEBC90E0511F0D8CDCFBE1118FC90
:20BEC000CDCFBE119CFFCDCFBE1EF6CDCFBE5A3E2F3C1938FCED520D2803FE30C8D9CD9C95
:05BEE000BDD90E01C9EF
:00000001FF
